:020000000329D2
:0E000600213083120313FD00FD0B07280800B4
:100014000F3083120313FC004730FD00FD0B102842
:0A002400FC0B10280000000008008B
:06002E00000000000800C4
:1000340083120313CA1B20288612212886164A1B02
:100044002528061226280616CA1A2A2886112B28BD
:1000540086154A1A2F280611302806154218342806
:10006400061435280610861417208610CA193C2851
:1000740086123D2886164A19412806124228061679
:10008400CA1846288611472886154A184B2806118F
:100094004C280615421850280614512806108614B8
:1000A40017208610421C58280A20592803200800CB
:0E00B4008312031341088A00400882000800EE
:1000C2008312031342104908CA001A20421408007E
:1000D2008316031386100610061186110612861265
:1000E20083128610061086120612861106110A2045
:1000F2000A200A20861506158614172086100A2063
:100102008614172086100A208614172086100A20CB
:1001120006118614172086100A20861417208610CE
:10012200861186168614172086100A208612061556
:1001320086141720861006118614172086100A20AE
:1001420086141720861006158614172086100A209A
:1001520006118614172086108616061686150615B1
:0C0162008614172086100A2042140800A2
:10016E00C928803083120313C500DC28C030C500B7
:10017E00DC289430C500DC28D430C500DC28803063
:10018E00C500DC28831203134508013A0319B82869
:10019E004508023A0319BD284508033A0319C02839
:1001AE004508043A0319C328C6284603F00045083B
:1001BE00F0077008C5007008CA001A204210C80166
:1001CE0048084707840000080319F5284808470720
:1001DE0084000008C9006120C80AE72842140800FC
:1001EE005A208A110A128000840AC00A0319C10A11
:0801FE00F003031DF7280800BF
:100206004D3083120313A0006F30A1006830A200A6
:100216006130A3006D30A4006530A5006430A600EF
:10022600A7012030A8002030A9004130AA006C3078
:10023600AB006930AC002030AD002030AE00AF011D
:100246004D30B0006F30B1006830B2006130B3009D
:100256006D30B4006530B5006430B600B7012030AB
:10026600B8002030B9004130BA006C30BB006930AC
:10027600BC002030BD002030BE00BF0169200C301C
:10028600CA001A200130C3000030C4008030F000DC
:10029600803044067002031D52294308103C031C9B
:1002A60076290130C5004308C6003030C700B720A4
:1002B6000230C5004308C6003830C700B7200230F8
:1002C600FB000430FC00BA30FD00FD0B6829FC0B76
:1002D6006829FB0B682900000130CA001A20C30AEE
:1002E6000319C40A492980304406F00080307002A0
:1002F600031D7F2903304302031CA7290130CA00CE
:100306001A201830CA001A200130C302031CC40385
:100316000130C5004308C6002030C700B7200230B0
:10032600C5004308C6002830C700B7200230FB00CE
:100336000430FC00BA30FD00FD0B9F29FC0B9F2901
:0C034600FB0B9F29000076294529A829FF
:02400E00CB2FB6
:00000001FF
